:020000040000fa
:080000000002040000000000f2
:020000040000fa
:04000800ac02000046
:020000040000fa
:04000c00ac02000042
:020000040000fa
:04001000ac0200003e
:020000040000fa
:04001400ac0200003a
:020000040000fa
:04001800ac02000036
:020000040000fa
:04001c00ac02000032
:020000040000fa
:04002000ac0200002e
:020000040000fa
:04002400ac0200002a
:020000040000fa
:04002800ac02000026
:020000040000fa
:04002c00ac02000022
:020000040000fa
:04003000ac0200001e
:020000040000fa
:04003400ac0200001a
:020000040000fa
:04003800ac02000016
:020000040000fa
:04003c00ac02000012
:020000040000fa
:04004000ac0200000e
:020000040000fa
:04004400ac0200000a
:020000040000fa
:04004800ac02000006
:020000040000fa
:04004c00ac02000002
:020000040000fa
:04005000ac020000fe
:020000040000fa
:040054001010000088
:020000040000fa
:04005800e00f0000b5
:020000040000fa
:04005c00ac020000f2
:020000040000fa
:04006000ac020000ee
:020000040000fa
:04006400ac020000ea
:020000040000fa
:04006800ac020000e6
:020000040000fa
:04006c00ac020000e2
:020000040000fa
:04007000ac020000de
:020000040000fa
:04007400ac020000da
:020000040000fa
:04007800ac020000d6
:020000040000fa
:04007c00ac020000d2
:020000040000fa
:04008000ac020000ce
:020000040000fa
:04008400ac020000ca
:020000040000fa
:04008800ac020000c6
:020000040000fa
:04008c00ac020000c2
:020000040000fa
:04009000ac020000be
:020000040000fa
:04009400ac020000ba
:020000040000fa
:04009800ac020000b6
:020000040000fa
:04009c00ac020000b2
:020000040000fa
:0400a000c611000085
:020000040000fa
:0400a40096110000b1
:020000040000fa
:0400a800ac020000a6
:020000040000fa
:0400ac00ac020000a2
:020000040000fa
:0400b000ac0200009e
:020000040000fa
:0400b400ac0200009a
:020000040000fa
:0400b800ac02000096
:020000040000fa
:0400bc00ac02000092
:020000040000fa
:0400c000ac0200008e
:020000040000fa
:0400c400ac0200008a
:020000040000fa
:0400c800ac02000086
:020000040000fa
:0400cc00ac02000082
:020000040000fa
:0400d000ac0200007e
:020000040000fa
:0400d400ac0200007a
:020000040000fa
:0400d800ac02000076
:020000040000fa
:0400dc00ac02000072
:020000040000fa
:0400e000ac0200006e
:020000040000fa
:0400e400ac0200006a
:020000040000fa
:0400e800ac02000066
:020000040000fa
:0400ec00ac02000062
:020000040000fa
:0400f000ac0200005e
:020000040000fa
:0400f400ac0200005a
:020000040000fa
:0400f800ac02000056
:020000040000fa
:0400fc00ac02000052
:020000040000fa
:04010000ac0200004d
:020000040000fa
:04010400ac02000049
:020000040000fa
:04010800ac02000045
:020000040000fa
:04010c00ac02000041
:020000040000fa
:04011000ac0200003d
:020000040000fa
:04011400ac02000039
:020000040000fa
:04011800ac02000035
:020000040000fa
:04011c00ac02000031
:020000040000fa
:04012000ac0200002d
:020000040000fa
:04012400ac02000029
:020000040000fa
:04012800ac02000025
:020000040000fa
:04012c00ac02000021
:020000040000fa
:04013000ac0200001d
:020000040000fa
:04013400ac02000019
:020000040000fa
:04013800ac02000015
:020000040000fa
:04013c00ac02000011
:020000040000fa
:04014000ac0200000d
:020000040000fa
:04014400ac02000009
:020000040000fa
:04014800ac02000005
:020000040000fa
:04014c00ac02000001
:020000040000fa
:04015000ac020000fd
:020000040000fa
:04015400ac020000f9
:020000040000fa
:04015800ac020000f5
:020000040000fa
:04015c00ac020000f1
:020000040000fa
:04016000ac020000ed
:020000040000fa
:04016400ac020000e9
:020000040000fa
:04020800ac02000044
:020000040000fa
:04020c00ac02000040
:020000040000fa
:04021000ac0200003c
:020000040000fa
:04021400ac02000038
:020000040000fa
:04021800ac02000034
:020000040000fa
:04021c00ac02000030
:020000040000fa
:04022000ac0200002c
:020000040000fa
:04022400ac02000028
:020000040000fa
:04022800ac02000024
:020000040000fa
:04022c00ac02000020
:020000040000fa
:04023000ac0200001c
:020000040000fa
:04023400ac02000018
:020000040000fa
:04023800ac02000014
:020000040000fa
:04023c00ac02000010
:020000040000fa
:04024000ac0200000c
:020000040000fa
:04024400ac02000008
:020000040000fa
:04024800ac02000004
:020000040000fa
:04024c00ac02000000
:020000040000fa
:04025000ac020000fc
:020000040000fa
:04025400ac020000f8
:020000040000fa
:04025800ac020000f4
:020000040000fa
:04025c00ac020000f0
:020000040000fa
:04026000ac020000ec
:020000040000fa
:04026400ac020000e8
:020000040000fa
:04026800ac020000e4
:020000040000fa
:04026c00ac020000e0
:020000040000fa
:04027000ac020000dc
:020000040000fa
:04027400ac020000d8
:020000040000fa
:04027800ac020000d4
:020000040000fa
:04027c00ac020000d0
:020000040000fa
:04028000ac020000cc
:020000040000fa
:04028400ac020000c8
:020000040000fa
:04028800ac020000c4
:020000040000fa
:04028c00ac020000c0
:020000040000fa
:04029000ac020000bc
:020000040000fa
:04029400ac020000b8
:020000040000fa
:04029800ac020000b4
:020000040000fa
:04029c00ac020000b0
:020000040000fa
:0402a000ac020000ac
:020000040000fa
:0402a400ac020000a8
:020000040000fa
:0402a800ac020000a4
:020000040000fa
:0402ac00ac020000a0
:020000040000fa
:0402b000ac0200009c
:020000040000fa
:0402b400ac02000098
:020000040000fa
:0402b800ac02000094
:020000040000fa
:0402bc00ac02000090
:020000040000fa
:0402c000ac0200008c
:020000040000fa
:0402c400ac02000088
:020000040000fa
:0402c800ac02000084
:020000040000fa
:0402cc00ac02000080
:020000040000fa
:0402d000ac0200007c
:020000040000fa
:0402d400ac02000078
:020000040000fa
:0402d800ac02000074
:020000040000fa
:0402dc00ac02000070
:020000040000fa
:0402e000ac0200006c
:020000040000fa
:0402e400ac02000068
:020000040000fa
:0402e800ac02000064
:020000040000fa
:0402ec00ac02000060
:020000040000fa
:0402f000ac0200005c
:020000040000fa
:0402f400ac02000058
:020000040000fa
:0402f800ac02000054
:020000040000fa
:0402fc00ac02000050
:020000040000fa
:04030000ac0200004b
:020000040000fa
:04030400ac02000047
:020000040000fa
:04030800ac02000043
:020000040000fa
:04030c00ac0200003f
:020000040000fa
:04031000ac0200003b
:020000040000fa
:04031400ac02000037
:020000040000fa
:04031800ac02000033
:020000040000fa
:04031c00ac0200002f
:020000040000fa
:04032000ac0200002b
:020000040000fa
:04032400ac02000027
:020000040000fa
:04032800ac02000023
:020000040000fa
:04032c00ac0200001f
:020000040000fa
:04033000ac0200001b
:020000040000fa
:04033400ac02000017
:020000040000fa
:04033800ac02000013
:020000040000fa
:04033c00ac0200000f
:020000040000fa
:04034000ac0200000b
:020000040000fa
:04034400ac02000007
:020000040000fa
:04034800ac02000003
:020000040000fa
:04034c00ac020000ff
:020000040000fa
:04035000ac020000fb
:020000040000fa
:04035400ac020000f7
:020000040000fa
:04035800ac020000f3
:020000040000fa
:04035c00ac020000ef
:020000040000fa
:04036000ac020000eb
:020000040000fa
:04036400ac020000e7
:020000040000fa
:100400004fc320000e7f24000e0188000000000072
:10041000000020000000e000020032000001200087
:10042000200288000c00070060532100010020001a
:1004300011000700000020000000e0000200320070
:100440000000020000000000d015020000000000c3
:100450000040da000000fe004440a900a001200096
:100460000000e0000300320000002000a00188002e
:100470004440a80000000600910188008000780038
:100480000000eb0015003700e280400032a0b4000d
:100490009101ba00e280400032a0b4009102ba009b
:1004a000e280400032a0b4000002eb00472bde00e7
:1004b000f507b200602ce10004003a000059eb009f
:1004c0008301e900fdff3e00040037006128e100e0
:1004d000010032000082eb000b00070011c3ba00dc
:1004e0001101ba000604e00003003a000200e00037
:1004f000e5ff3a0000000600f607b200960188000a
:1005000082007800f5ff37003159ba008301e90015
:100510000c0032002159ba008301e90008003200c2
:100520000400e00003003a00e280400032a0b40082
:10053000f5ff370011d9ba008301e900faff3a004c
:100540008100e800e180400032a0b4000000060015
:10055000ee020400000000000040da000000fe008f
:10056000839f68000100e00002003d006000100071
:10057000e08018000300e00002003d00600111006f
:10058000e0811900050007004f00e00002003b0079
:1005900060001000e0801800000006006022b80033
:1005a000060220000000d0008180d2000482d20028
:1005b0008582d2000000a0000202520083825a000d
:1005c000030031000202420083824a000000a100c1
:1005d0000603e900f3ff3a0000000600881f7800d8
:1005e0000204780008017800cc01070008004000f0
:1005f0004f047800000006000000fa00881f780011
:1006000000047800ea8157003fb99700880078001d
:10061000e02e2000070007000000e0000200350087
:100620008040eb00017478004f0478000080fa00ed
:10063000000006006200fa00889fbe008a1f780052
:1006400000057800810478000204780083007800b7
:1006500080f92f000f004000ae0307009a979f001b
:10066000a9979f000000eb00b09f9f001885fb003a
:100670008a04fb000a05ea004f55de005002200004
:10068000808f54000d003200e10f55000b003a003e
:100690000a017800880078002f9097009f919700ba
:1006a00003000100a0979f000000e0008e003200d0
:1006b0003f9897000000e800b09f9f000a044400a4
:1006c00050022000808f5400040032000900e00036
:1006d000e6ff3a003f989700840037000000eb00e7
:1006e000909f9f00809f9f00f0979f00e0979f0042
:1006f000d0979f00c0979f0007003700e1c22000fd
:10070000010050000000400021c22000610078007c
:10071000df98970001007000d09f9f008804780048
:1007200009047800384578008a00fb00e0c2200008
:10073000810107000000e000f0ff3a00a1c2b30011
:10074000814f55000e003a00cf8897000180e900e4
:10075000c08f9f0010007800c09f9f000000e00045
:1007600005003d000000ea00c09f9f005f989700d1
:100770000020a000d09f9f000904e8000f00370070
:10078000c09f9f000000eb0005003700f2ff27002c
:10079000820f5000020032006a01b900028040005e
:1007a0000904780088047800b900fb000103b10057
:1007b000e98f5000f5ff3600c09f9f00e0c2b300f4
:1007c000984f1000020032000080eb001900370043
:1007d000a0c2b300d84f100007003a00cf8897009e
:1007e0000180e900c08f9f0010007800a09f9f004b
:1007f0000804e800100037000000eb00a09f9f00f5
:100800008800780005003700f3ff2700830f5000b1
:10081000020032006a02b9000400410001047800bd
:10082000880078003101fb000203b100e90f51009c
:10083000f5ff3600a09f9f00984478008900fb00d8
:10084000a0c120003c0107000000e00002003200cf
:100850000804e800010037008044eb00c97f9f00d6
:1008600080c6b30080cf540004003a0098cf140033
:100870000a003a006640500006003700c0c6b300c8
:1008800080cf540005003a0098cf140003003a00ce
:1008900065404000c07f9f000804e8001801fb008d
:1008a000e3fb2f008f81410081f92f008f804000f2
:1008b000a0f92f000f004000100007000000e0002a
:1008c00009003a00e1fb2f008f804000a0f92f00c3
:1008d0000f004000530207000000e0000200350056
:1008e0000804e80061ff37000080eb004f05780046
:1008f0004f04be000080fa0000000600881f780048
:10090000e4c6b300844f5100b600320010003c0032
:100910006b425200844f51001800320005003c0029
:1009200054c2b300844f5100ee00320084c5b300be
:100930000f00370044c6b300844f5100140032004a
:1009400065424200844f5100e9003a001000370030
:1009500004c7b300844f5100d50032005300350066
:1009600065424200844f5100500032006342420011
:10097000844f5100de003a004c0037001181e9003d
:1009800082087800f000900012417800d60037000d
:1009900020629000c5c6b300854f520007003a00a0
:1009a0009102780064825200840878001402be002c
:1009b0004fabde00860378001100370015c7b30087
:1009c000854f520003003200a5c6b300854f520088
:1009d00006003a009102780068825200840878008c
:1009e0005403be004402be00050037001182e90036
:1009f0008408780014027800cfa2de00612bb900d1
:100a00000498be000690be00a060900088c6b300a7
:100a100088cf50000d00320028c6b30088cf5000a8
:100a200004003a000402fb00cfa2de00612bb900f3
:100a30000800370048c7b30088cf500003003200d9
:100a40006644440088cf500004003a00cfa2de0084
:100a5000612bb9000498be000690be003002be00b3
:100a60002003be00f0009000e00f5200e08f5a001b
:100a7000e00f5b00e08f5b0002003d00d4c2b300da
:100a800008003700001290000418a3000200320092
:100a9000b4c2b300030037000408a3004c003200c6
:100aa00004c2b30084f17800470037002062900050
:100ab000c5c6b300854f520006003a009102780087
:100ac00064825200840878001402be006033b800cb
:100ad0001100370015c7b300854f520003003200e4
:100ae000a5c6b300854f520006003a009102780077
:100af00068825200840878005403be004402be009d
:100b0000050037001182e90084087800140278009b
:100b10008002eb006033b8000498be000690be006f
:100b2000a060900088c6b30088cf50000d0032004e
:100b300028c6b30088cf500004003a000482fb00ae
:100b40008002eb006033b8000800370048c7b300ec
:100b500088cf5000030032006644440088cf500024
:100b600004003a008002eb006033b8000498be0035
:100b70000690be00801090000138a30014003200df
:100b80003002be002003be00e00f5200e08f5a008a
:100b9000e00f5b00e08f5b000d00320081c7b30007
:100ba000814f51000300320081c5b300814f5100d5
:100bb00007003a00f000900004c3b30084f178000d
:100bc0008100e80082f178008100e800710098005f
:100bd000f00090008181410063009800824078001d
:100be0003e003700a0619000c4c6b3001181e90047
:100bf00084cf5100220032000a003c0064425200bf
:100c000084cf51002500320004c2e80084cf510097
:100c1000130032006842520084cf51001e003a0097
:100c20000a00370044c7b30084cf51001b003200d4
:100c30006642420084cf51001800320069425200df
:100c400084cf510014003a00050037008208780074
:100c50009200780040589000804878002c003700bf
:100c60008208780092007800600a9000cfa2de002f
:100c7000612bb9008498be008690be002400370026
:100c8000820878009200780060099000cf91de0021
:100c90008288be001e0037001181e90082087800ba
:100ca00092007800600890008008780018003700f3
:100cb0001181e9008208780012027800cfa2de00dc
:100cc000612bb9000498be000690be00f0009000b1
:100cd000818141006300980081c7b30022000700b2
:100ce0000b003700f000900082f17800060037001a
:100cf000f0009000818141000204e00001003a0010
:100d000052c2b300824978008100e8007100980067
:100d10000000eb004f04780000000600800178001e
:100d200002003700b15978000201e9000200e0003a
:100d3000fcff3a0000000600020037000304e00058
:100d4000060032000001780002007800b04178000f
:100d500081cf5100f9ff3a00010037000001eb009c
:100d60000200780000000600fc874700889fbe0054
:100d70008a9fbe008c9fbe008e1f78000006780000
:100d800080c5b30080cf50000a0032007740400099
:100d900080cf50000a0032006940400080cf5000f0
:100da0000b00320090c0200080bf9f00ae002000ea
:100db0000a00370082bf200082bf9f000600370074
:100dc00093c0200083bf9f008e00200003003700e7
:100dd00094c0200084bf9f000e0120003c02be0092
:100de0002c03be000605be000404be0040c6b300ce
:100df00080cf5000030032006540400080cf50009b
:100e00000b003a00e00f5200e08f5a00e00f5b0049
:100e1000e08f5b0006003d006000b8006011b80084
:100e20000404500085845800060559008785590040
:100e3000e80f57000400320040002000f00f570078
:100e400038003a000100370030002000e00f540065
:100e5000e08f5c00e00f5d00e08f5d0004003a0071
:100e6000dc0890008d0120000100e0000600320047
:100e70008e00e900888060008fba9700e5c0780096
:100e8000f1ef9f007d012000800078008100e900e3
:100e9000050033008b05d1000a85d3008984d30077
:100ea0000884d300f9ff3700089ebe000a96be00f2
:100eb000120037008d06e9008e00e9008480600092
:100ec0000fb99700e2c1780082fd2f000f014100a9
:100ed00003f17e00800078008100e9000500330006
:100ee0008783d1000683d3008582d3000482d30098
:100ef000f9ff3700049ebe000696be003c02be000d
:100f00002c03be00e00f5200e08f5a00e00f5b00a0
:100f1000e08f5b008b0034000d00e000e5ff3c003b
:100f2000880037002c60900081c6b300814f5000cc
:100f30000b00320006003c000004e0000800320014
:100f4000e6c05000814f50004e003a0004003700c8
:100f5000c1c6b300814f50004a003a00210037005b
:100f60000800e00004003a005c0890008d012000b9
:100f70000000e00006003200110009000e84d800d5
:100f80000fb99700e2c07800f1ef9f007d012000cb
:100f9000110009000e84d8000a0037001100090072
:100fa0000e04d8008d06e9000e81b9000204540039
:100fb0008fb8970061417c0081fd2f008f80400039
:100fc00082f07e00000478000800e0000200320099
:100fd0000d00e000f1ff3c00cfc4de00614db90020
:100fe00025003700e00f5400e08f5c0004003a0059
:100ff0005c0890008d0120000000e0000700320036
:101000006171b9000800be00440107008fb9970064
:10101000e3417800f3ef9f007d0120006171b9008a
:101020000800be005dfd07000b0037006171b900cc
:101030000800be004afd07008d06e90000f1b90076
:10104000020454000fba9700e4427c0084fd2f0094
:101050000f02420005f27e000004be00e00f5000c7
:10106000e08f5800020032000d00e000efff3c006e
:101070004fcdde008a057800089ebe000a96be00ad
:1010800030003700e00f5400e08f5c00e00f5d009f
:10109000e08f5d0004003a005c0890008d012000a4
:1010a0000000e000090032006172b900612bb90054
:1010b0000800be000a01be00bb0107000fba97007e
:1010c00064427800f4ef9f007d0120006172b90056
:1010d000612bb9000800be000a01be00ab01070089
:1010e0000d0037006172b900612bb9000800be0025
:1010f0000a01be00b00107008d06e90000f2b90048
:10110000040454008fba970065427c0085fd2f00cf
:101110008f82420084f27e00009ebe000296be00d6
:101120003c04be002c05be00e00f5400e08f5c00c4
:10113000e00f5d00e08f5d00020034000d00e00074
:10114000e8ff3c00e80f570010003a000c10900038
:101150000038a3000d003200f78f560006003e0055
:1011600085fd2f008f824200e5c07e0000c3b300e2
:1011700080cf5000050032008d06e90002c3b300a5
:1011800081fd2f008f80400082f07e007881160064
:10119000120e98006c00900083fd2f008f8141009b
:1011a0008d804100ddfe07001c089000dc089000e7
:1011b000810f500006003d0000805000000e980096
:1011c0000c1090000040a100001698000f0037009e
:1011d0000100e0000d003d008c109000f4806000e4
:1011e000f08f500009003a007c099000fc0090004c
:1011f000810051000c099000828050000080500056
:101200004240a90001003400000e98004f0778000a
:101210004f06be004f05be004f04be00cf01b10017
:10122000000006000400fa00889fbe008a9fbe00ee
:101230008c1f78000004780001067800f80d9000fb
:101240007800900080855500080890008085550042
:10125000180890008085550028089000808555006a
:10126000380890008085550048089000808555001a
:101270000002220090bf9f0000032300a0bf9f0038
:10128000081090000028a30015003a000b00e000b1
:10129000130034000b0578008a047800e20f550033
:1012a0000100360029002000c801900009017800e3
:1012b000ee80570058009000030001005004980091
:1012c0000000e0008c003200680890000900400037
:1012d000600c9800090555004240a900eeff3c0053
:1012e000780190000200e0000c003400c80190007a
:1012f0008c00780058009000030001005004980012
:101300008080eb000000e0007c003200e8089000e4
:101310007800900000804000600c9800880c9000dd
:101320000900e0001100340009057800e28f540044
:10133000010036002a002000c80190000a01780050
:10134000ec80570058009000030001005004980002
:101350000000e00068003200680890000a004000c9
:10136000600c98008a845400edff37001809900043
:101370000200e0000c003400c8019000e80090007a
:101380005800900003000100500498008080eb009a
:101390000000e00059003200e808900018089000b2
:1013a00000804000600c9800a80c90000900e0004c
:1013b0001100340009057800e28f54000100360066
:1013c0002a002000c80190000a017800ec80570034
:1013d0005800900003000100500498000000e00055
:1013e00045003200680890000a004000600c980038
:1013f0008a845400edff3700380990000200e000b5
:101400000e003400e8009000180890008080400032
:10141000c80190005800900003000100500498009b
:101420008080eb000000e00034003200e80890000b
:101430003808900000804000600c9800c80c9000b4
:101440000900e0001100340009057800e28f540023
:10145000010036002a002000c80190000a0178002f
:10146000ec805700580090000300010050049800e1
:101470000000e00020003200680890000a004000f0
:10148000600c98008a845400edff3700081090002b
:101490008000eb000028a300180032000b00e000e1
:1014a000160034008b04780009057800e28f5400a0
:1014b000010036002a002000c80190000a017800cf
:1014c000ee8057005800900003000100500498007f
:1014d0000000e00008003200680890000a004000a8
:1014e000600c98008a8454004240a900eeff3c0042
:1014f0008000eb00010037008080eb0001007800e5
:101500004f0678004f05be004f04be000080fa0071
:101510000000060001087800000006001ffc07001c
:101520000400be0000000600889fbe008a9fbe0027
:1015300030044200b0844a0030054b0090854b00d7
:101540006000b1000898be000a90be000440e100af
:1015500005c8e10006d0e10007d8e1000200310033
:10156000680040001008e8004f05be004f04be00b0
:1015700000000600889fbe008a9fbe003004be00a7
:101580002005be000418540005985c0006185d0094
:1015900007985d00110020000440e10005c8e1004b
:1015a00006d0e10007d8e100010039008000eb001f
:1015b000108810004f05be004f04be00000006005a
:1015c0001200fa00889fbe008a9fbe008c9fbe005a
:1015d000e0b79f00f1b79f0082bf9f0093bf9f00bd
:1015e0000605be000404be000000eb00d0b79f005b
:1015f000c0b79f00b0b79f00a0b79f0090b79f00f3
:101600000006eb005fb19700cfb097008201410068
:101610003fb097000200e00004003d0037000700e3
:101620007e805700c0ff070003003700330007002b
:101630007e805700cfff0700dfb697000d00e00067
:101640000c0035006fb29700ffb297000fbb9700f8
:101650009fbb970010002000010020006011b8001f
:1016600000027200818272000203730083837300a0
:101670001b0007000c06e80001042000810f560043
:10168000e0ff3a000d00e00004003d000802be004b
:101690000a03be007e805700a3ff07005fa89700e3
:1016a0000000e00005003a001fb29700afb29700bb
:1016b0003fb39700cfb39700090007006fb09700c2
:1016c000ffb097000fb997009fb997004f06be0073
:1016d0004f05be004f04be000080fa000000060067
:1016e0000100070000000600a4b79f00b5b79f00e7
:1016f000c6b79f00d7b79f00000006004f09de0065
:1017000082817100b3b79f004f01de0081804000ed
:1017100082807000a1b79f008fb097004f09de0054
:10172000000040000200700090b79f007fa8970063
:101730004f01de00818040008280700081b79f00f1
:101740000d0007004f3ade0000004000040070006a
:10175000f0af9f00080007000402420085824a00a3
:1017600006034b0087834b00dfff07000802be0023
:101770000a03be00000006002fb29700bfb2970018
:101780004fb39700dfb3970000000600881f780072
:1017900018002000881f780089ff07008f87e90064
:1017a0004f04780000000600801feb0084ff070054
:1017b0008f87e90000000600889fbe008a9fbe0058
:1017c000e00f5000e08f5800e00f5900e08f590003
:1017d0000c003d006044b8006055b80000005400a3
:1017e00081805c0002015d0083815d0018002000a3
:1017f0001500070008003d00180007000004eb007a
:10180000050037000004eb000f00070002003d0058
:101810001200070018002000dcff07000800e000ad
:10182000060032006022b8006033b80000005200a9
:1018300081805a0002015b0083815b004f05be007e
:101840004f04be0000000600e00f5200e08f5a0077
:10185000e00f5b00e08f5b00000006006044b80012
:101860006055b8000402540085825c0006035d00e8
:1018700087835d0000000600889fbe008a9fbe002f
:101880008c1f7800e00f5000e08f5800e00f5900e7
:10189000e08f59000d003d006044b8006055b8006d
:1018a0000000540081805c0002015d0083815d00c6
:1018b0001c0020000820e10009a8e1000ab0e100b6
:1018c0000bb8e1000d003d00080037000006eb00fa
:1018d000e00f5200e08f5a00e00f5b00e08f5b00ea
:1018e00006003d006044b8006055b8000402540092
:1018f00085825c0006035d0087835d00aaff070008
:101900000c00e000060032006022b8006033b8002e
:101910000000520081805a0002015b0083815b005d
:101920004f0678004f05be004f04be0000000600c1
:020000040000fa
:10193000415400000000000000410000542b000052
:1019400042410000554400002558000020000000de
:1019500000410000542b0000504900004e250000bb
:04196000750000000e
:020000040000fa
:101964000400fa00000f780011079800c1a1a90033
:10197400000e80000040a1000050a1000060a10002
:101984000070a100000e8800000e80000020a1005d
:101994000030a100000e8800000e80000000a100ad
:1019a4000010a100000e880000702000400e880086
:1019b4001e0078000000e00001003d00d501a800f1
:1019c400000024001e0060000000e000010032005e
:1019d400d521a800000022001e0060000000e000e5
:1019e40001003200d541a800000021001e00600063
:1019f4000000e00001003200d561a8000080200052
:101a04001e0060000000e00001003200d581a80043
:101a1400004020001e0060000000e00001003200d1
:101a2400d5a1a8001e00900009000700d621ef00f0
:101a3400d821ef00da21ef00ca41a900ca21a80089
:101a4400ca01a900c1e1a8000080fa000000060054
:101a54000800fa00300798000040eb004047980067
:101a64003e0090008000eb000001be0060532700a0
:101a7400c1252000b9fa07000002be004e409000c4
:101a84000080fb0000004000110020000008dd0081
:101a9400cf80de000001be000400be00befa0700d5
:101aa4000081eb008081eb00021f40000397480097
:101ab4004e4090000040e80040479800f0ff2700a7
:101ac400010020001e01be00800f5100818f5900cb
:101ad400030036004e409000e34f5000e0ff360014
:101ae400f0ff2700010020001e01be00800f5100fe
:101af400818f590003003600f0ff27000100200009
:101b0400008fbe004e4090000040e900634060003a
:101b14000080fb00630060004200dd00020e8000d4
:101b240031ff2f008100610001007000000e880069
:101b34009e007800f0ff270000806000200e8800df
:101b44000080fa00000006000600fa001007980062
:101b540021079800ae00900000712200808f500091
:101b6400020036000071220020079800200e800039
:101b74008000eb0000014000818148002e009000ad
:101b84008000eb00009ab90004027800028bb900cf
:101b940086027800050242000010b80001024200eb
:101ba4008400780002712200030020006bfa070011
:101bb400000f78009e00900000002c000080600060
:101bc4000000e000020032009e007800b10e8800a0
:101bd4009e00900000002300008060000000e000f0
:101be400020032009e007800c10e88009e00900022
:101bf40000c02000008060000000e000020032000d
:101c04009e007800d10e88000080fa0000000600d3
:101c14000400fa0010079800f0002000000f78007c
:101c240012003700110020001e0078000008dd00bb
:101c3400800078001e009000008060000000e0003a
:101c440009003200f10020001e8050000080d10005
:101c5400110020000008dd0080007800400e8000a4
:101c640001007000400e88001e8fe9001e007800fd
:101c7400e90f5000ebff3c00e0002000000f78006b
:101c840013003700110020001e0078000008dd005a
:101c9400800078001e009000008060000000e000da
:101ca4000a003200e10020001e8050000080d100b4
:101cb40064004000110020000008dd00800078006e
:101cc400400e800001007000400e88001e8fe90065
:101cd4001e007800e90f5000eaff3c000080fa0083
:101ce400000006000400fa0010079800f00020002d
:101cf400000f780013003700110020001e00780048
:101d04000008dd00800078001e0090000080600064
:101d14000000e0000a003200f10020001e805000a4
:101d24000080d100110020000008dd000080ea00de
:101d340080007800400e800000806000400e880023
:101d44001e8fe9001e007800e90f5000eaff3c00f6
:101d5400e0002000000f780014003700110020007c
:101d64001e0078000008dd00800078001e0090004e
:101d7400008060000000e0000b003200e100200061
:101d84001e8050000080d10064004000110020003b
:101d94000008dd000080ea0080007800400e80002a
:101da40000806000400e88001e8fe9001e0078004d
:101db400e90f5000e9ff3c000080fa000000060033
:101dc4000400fa00008fbe001e01be00605327000d
:101dd400c1252000f0f907004c09dd004400de00b5
:101de40000007100c408de00000078000000e90073
:101df400401188002002a900001180000010a100f9
:101e04000020a1000011880020a2a9002062a900de
:101e1400001180000080a1000090a1000011880042
:101e240021a2a90023a2a90023e2a8001011800086
:101e34000060a1000070a10010118800500580000e
:101e44000000a0000010a1000020a00050058800a0
:101e54004005800000c0a10000d0a00000e0a00068
:101e6400400588008580a9008560a9009580a900a7
:101e74009560a80021e2a8002342a800113a80003e
:101e8400f00b200000816000600420007105200038
:101e940023742000804978008149780082497800c1
:101ea4002135800000fe2f00008060005000b30048
:101eb400203588002136800000fe2f00008060005d
:101ec4003000b30020368800113a8000000420005e
:101ed40001017000600420007105200023742000bb
:101ee4008049780081497800824978004116800051
:101ef4000002200001007000401688000080fa00f3
:101f0400000006000000fa000000000031408000dc
:101f140020408000808f5000fcff3a0086000700bc
:101f24000080fa00000006000200fa00000f7800aa
:101f3400040037001e007800104078005d000700a0
:101f44001e0fe8001e007800104078000004e00036
:101f5400f8ff3a00780007000080fa00000006004d
:101f64000200fa003140800020408000808f500041
:101f74000d00320030408000a190200061407800c4
:101f8400004f7800304080000000e80030408800b6
:101f940031408000a00f2000808f500004003a00e0
:101fa4000628ef00020037000040eb00004f7800e5
:101fb4001e4078000080fa0000000600809fbe00ea
:101fc4000000fa008580a9001140800000408000d4
:101fd400808f50000d0032001040800001812000ed
:101fe400e14078008180fb00211188000000e800b6
:101ff4001040880011408000a00f2000808f500006
:1020040003003a000228ef00010037009580a90080
:102014000080fa004f00be0000400600809fbe0012
:10202400821f78000000fa008560a900204080002b
:102034008000e80030408000808f500007003200ac
:1020440021408000900f2000808f500008003a004b
:10205400304080000000e00005003a005116800086
:10206400f0ff2e0000806000501688000d0037003d
:10207400204080003111800001417800a1902000af
:1020840082707800204080000000e8002040880032
:1020940021408000a00f2000808f500001003a00f2
:1020a4000428ef000080fa004f0178004f00be00c2
:1020b400004006000200fa00004f78000040800053
:1020c4008000e80010408000808f5000070032003c
:1020d40001408000900f2000808f500008003a00db
:1020e400104080000000e00005003a005116800016
:1020f400f0ff2e0000806000501688000c003700ae
:1021040000408000018120001e4178008270780028
:10211400004080000000e80000408800014080008a
:10212400a00f2000808f500001003a000028ef002b
:102134000080fa00000006000000fa009580a80064
:102144008580a8000080fa00000006000400fa0060
:10215400008fbe0000102000c01188003002a900ca
:10216400801180000010a1000020a10080118800cf
:1021740030a2a9003062a900801180000080a10073
:102184000090a1008011880031a2a90033a2a90007
:1021940033e2a800901180000060a1000070a1004b
:1021a400901188009005800000c0a00000d0a1001c
:1021b40000e0a00090058800900580000080a10048
:1021c4000090a00000a0a0009005880087e0a9006e
:1021d40087c0a90097e0a90097c0a80031e2a80031
:1021e4003342a800113a8000f00b20000081600007
:1021f40060042000710520002374200080497800c9
:1022040081497800824978003135800000fe2f0032
:10221400008060006000b3003035880031368000f3
:10222400f00f2e008080600000502000010070003c
:1022340030368800113a800000042000010170004b
:102244006004200071052000237420008049780078
:1022540081497800824978004116800000042000fa
:1022640001007000401688000080fa00000006009b
:102274000000fa000000000071408000604080000f
:10228400808f5000fcff3a00860007000080fa00af
:10229400000006000200fa00000f78000400370076
:1022a4001e007800104078005d0007001e0fe80053
:1022b4001e007800104078000004e000f8ff3a00a7
:1022c400780007000080fa00000006000200fa000f
:1022d4007140800060408000808f50000d0032000b
:1022e40070408000e1af200061407800004f78002a
:1022f400704080000000e800704088007140800059
:10230400a00f2000808f500004003a000e28ef0038
:10231400020037000040eb00004f78001e407800b8
:102324000080fa0000000600809fbe000000fa0052
:1023340087e0a9005140800040408000808f500019
:102344000d0032005040800041a02000e1407800a0
:102354008180fb00a11188000000e8005040880043
:1023640051408000a00f2000808f500003003a00ed
:102374000a28ef000100370097e0a9000080fa0066
:102384004f00be0000400600809fbe00821f780000
:102394000000fa0087c0a900604080008000e800c7
:1023a40070408000808f5000070032006140800040
:1023b400900f2000808f500008003a007040800089
:1023c4000000e00005003a0051168000f0ff2e00e6
:1023d40000806000501688000d00370060408000c7
:1023e4003111800001417800e1af20008270780053
:1023f400604080000000e800604088006140800088
:10240400a00f2000808f500001003a000c28ef003c
:102414000080fa004f0178004f00be000040060023
:102424000200fa00004f7800404080008000e8007d
:1024340050408000808f50000700320041408000ef
:10244400900f2000808f500008003a005040800018
:102454000000e00005003a0051168000f0ff2e0055
:1024640000806000501688000c0037004040800057
:1024740041a020001e417800827078004040800016
:102484000000e8004040880041408000a00f200088
:10249400808f500001003a000828ef000080fa0005
:1024a400000006000000fa0097e0a80087e0a800fa
:1024b4000080fa00000006000600fa0080c9280027
:1024c40003000900305f78004e00b1004000b10005
:1024d4000040eb0040479800005822000100200013
:1024e4001aff07000e0078006aff07000080fa0058
:1024f400000006001000fa006007980071079800b9
:102504006e019000fe019000004b200001002000ad
:10251400800f5100818f590003003e0010002000fd
:10252400000f7800660037006e019000fe019000f5
:102534000096200001002000800f5100818f590077
:1025440003003e0020002000000f78005c003700ec
:102554006e019000fe019000002c2100010020007b
:10256400800f5100818f590003003e00300020008d
:10257400000f7800520037006e019000fe019000b9
:102584000058220001002000800f5100818f590063
:1025940003003e0040002000000f78004800370090
:1025a4006e019000fe01900000b0240001002000a4
:1025b400800f5100818f590003003e00500020001d
:1025c400000f78003e0037006e019000fe0190007d
:1025d4000060290001002000800f5100818f590004
:1025e40003003e0060002000000f78003400370034
:1025f4006e019000fe01900000102e0001002000ea
:10260400800f5100818f590003003e0070002000ac
:10261400000f78002a0037006e019000fe01900040
:1026240000202c0011002000800f5100818f5900e0
:1026340003003e0080002000000f780020003700d7
:102644006e019000fe01900000402800310020003f
:10265400800f5100818f590003003e00900020003c
:10266400000f7800160037006e019000fe01900004
:102674000080200071002000800f5100818f5900dc
:1026840003003e00a0002000000f78000c0037007b
:102694006e019000fe01900000002100e100200086
:1026a400800f5100818f590003003e00b0002000cc
:1026b400000f780002003700c0002000000f7800ef
:1026c4000e80e8009e1f7800d1c92800811f780081
:1026d400c8f70700e48757000e80e800edfe070006
:1026e4000080fa00000006002200fa00001798009b
:1026f40010442500b1e22400100798002107980037
:1027040010d4240051042000300798004107980099
:10271400ea0047000a0009008018eb000000eb0003
:10272400000f78000a0037009e00780067804000a0
:102734008e109000914078000000470021409800de
:102744000e1090000000e800001798001e0fe8002b
:102754000e109000104078000004e000f2ff3a00f0
:102764009e00780067804000000047008040eb0036
:10277400214098000e80e800c6fe07000080fa00a1
:10278400000006000c00fa0050079800de009000dc
:10279400811f780090ca2800801f78000e007800fe
:1027a40094f70700e48757000e007800b9fe07008d
:1027b4000080fa00000006000400fa0010079800e8
:1027c4009e009000010f78000e007800b1fe070013
:1027d4000080fa00000006000200fa00bbfe0700b9
:1027e400004f78001e4078000080fa0000000600c8
:1027f4000400fa00100798000021ef001e0090006a
:10280400ef0f500015003e000040eb00004f780031
:102814001e0090008000eb00625327000289b9007b
:1028240002017800c32520000382b90084017800e6
:1028340003014100635327000300b8000101410074
:1028440082007800027122000300200052f7070082
:102854000000780010088800470037009e009000b0
:1028640030082000808f500015003e0010c0b300d7
:10287400004f78001e0090008000eb0062ea280000
:102884000289b90002017800b30420000382b90070
:10289400840178000301410063ea28000300b800c2
:1028a400010141008200780002712200030020002f
:1028b40039f7070000007800100888002e00370060
:1028c4009e00900010422000808f500014003e00b3
:1028d40020c0b300004f78001e0090008000eb0081
:1028e400421d27000289b900020178006902b9007b
:1028f4008401780003014100431d27000300b80050
:1029040001014100820078000271220003002000ce
:1029140021f707000000780010088800160037002f
:102924009e009000a0082100808f500012003e00fd
:1029340030c0b300004f78001e0090008000eb0010
:1029440052c725000289b900020178008001d00035
:102954000301410053c725000300b80001014100f1
:102964008200780002712200030020000af70700a9
:1029740000007800100888008460a9001e80fb0015
:102984004400dd0080007800000028000100700091
:10299400200888000080fa00000006000000fa0009
:1029a4000000000020048000680060000000e000d7
:1029b400fcff32008460a9000080fa0000000600d9
:1029c4000000fa00213a800000fe2f000080600021
:1029d400203a880090022000303a8800203a800093
:1029e4000060a1000070a100203a880012002000bd
:1029f40080072000a109200033742000804978005a
:102a04008149780082497800103a800000017800fa
:102a14000200a0006004200071052000237420003f
:102a240080497800814978008249780000000000dc
:102a3400113a80000000270080806000000021001f
:102a4400808f5000faff3a0000000000113a800025
:102a540000022000008060000000e000fbff320064
:082a64000080fa0000000600ea
:020000040000fa
:102a6c0010080000f4010000000000000008000045
:102a7c000800000000000000040a0000f40100003f
:102a8c000000000008080000080000000000000022
:102a9c001a0c00001a00000002000000686a6c00aa
:102aac00747a4c00000001000002000004000800d1
:102abc0000100000000020002b2d2300300000002f
:102acc00f80b000022000000020000003031320040
:102adc003334350036373800394142004344450021
:102aec004600300031323300343536003738390087
:102afc00616263006465660000000000d61580000a
:020000040000fa
:102b0c000200fa00000f78001e017800e30061005b
:102b1c000016800001007000001688001e0078006e
:102b2c004200de00ef0060004016800001007000e3
:102b3c00401688001e80ea00601988009010200062
:102b4c00201988002223ef00000e280000198800ad
:102b5c000080fa00000006000200fa00000f780066
:102b6c009e007800411988002023a80085a0a900a8
:102b7c0000000000210480000000220000806000a2
:102b8c000000e000fbff3200001880000080fa001b
:102b9c00000006000000fa0045fe0700ffff3700aa
:020000040000fa
:042bac000000000025
:020000040000fa
:0200000401f009
:04000000ffff0000fe
:020000040000fa
:0200000401f009
:04000800ffff0000f6
:020000040000fa
:0200000401f009
:04000c0000000000f0
:020000040000fa
:0200000401f009
:0400100043000000a9
:020000040000fa
:0200000401f009
:040014005f00000089
:020000040000fa
:0200000401f009
:04001800f7000000ed
:020000040000fa
:0200000401f009
:04001c00dfff000002
:00000001FF
