:020000040000fa
:080000000002040000000000f2
:020000040000fa
:04000800cc02000026
:020000040000fa
:04000c00cc02000022
:020000040000fa
:04001000cc0200001e
:020000040000fa
:04001400cc0200001a
:020000040000fa
:04001800cc02000016
:020000040000fa
:04001c00cc02000012
:020000040000fa
:04002000cc0200000e
:020000040000fa
:04002400cc0200000a
:020000040000fa
:04002800cc02000006
:020000040000fa
:04002c00cc02000002
:020000040000fa
:04003000cc020000fe
:020000040000fa
:04003400361500007d
:020000040000fa
:04003800cc020000f6
:020000040000fa
:04003c00cc020000f2
:020000040000fa
:04004000cc020000ee
:020000040000fa
:040044004e15000055
:020000040000fa
:04004800cc020000e6
:020000040000fa
:04004c00cc020000e2
:020000040000fa
:04005000cc020000de
:020000040000fa
:04005400ba130000db
:020000040000fa
:040058008a13000007
:020000040000fa
:04005c00cc020000d2
:020000040000fa
:04006000cc020000ce
:020000040000fa
:04006400cc020000ca
:020000040000fa
:04006800cc020000c6
:020000040000fa
:04006c00cc020000c2
:020000040000fa
:04007000cc020000be
:020000040000fa
:04007400cc020000ba
:020000040000fa
:04007800cc020000b6
:020000040000fa
:04007c00cc020000b2
:020000040000fa
:04008000cc020000ae
:020000040000fa
:04008400cc020000aa
:020000040000fa
:04008800cc020000a6
:020000040000fa
:04008c00cc020000a2
:020000040000fa
:04009000cc0200009e
:020000040000fa
:04009400cc0200009a
:020000040000fa
:04009800cc02000096
:020000040000fa
:04009c00cc02000092
:020000040000fa
:0400a000f811000053
:020000040000fa
:0400a400c81100007f
:020000040000fa
:0400a800cc02000086
:020000040000fa
:0400ac00cc02000082
:020000040000fa
:0400b000cc0200007e
:020000040000fa
:0400b400cc0200007a
:020000040000fa
:0400b800cc02000076
:020000040000fa
:0400bc00cc02000072
:020000040000fa
:0400c000cc0200006e
:020000040000fa
:0400c400cc0200006a
:020000040000fa
:0400c800cc02000066
:020000040000fa
:0400cc00cc02000062
:020000040000fa
:0400d000cc0200005e
:020000040000fa
:0400d400cc0200005a
:020000040000fa
:0400d800cc02000056
:020000040000fa
:0400dc00cc02000052
:020000040000fa
:0400e000cc0200004e
:020000040000fa
:0400e400cc0200004a
:020000040000fa
:0400e800cc02000046
:020000040000fa
:0400ec00cc02000042
:020000040000fa
:0400f000cc0200003e
:020000040000fa
:0400f400cc0200003a
:020000040000fa
:0400f800cc02000036
:020000040000fa
:0400fc00cc02000032
:020000040000fa
:04010000cc0200002d
:020000040000fa
:04010400cc02000029
:020000040000fa
:04010800cc02000025
:020000040000fa
:04010c00cc02000021
:020000040000fa
:04011000cc0200001d
:020000040000fa
:04011400cc02000019
:020000040000fa
:04011800cc02000015
:020000040000fa
:04011c00cc02000011
:020000040000fa
:04012000cc0200000d
:020000040000fa
:04012400cc02000009
:020000040000fa
:04012800cc02000005
:020000040000fa
:04012c00cc02000001
:020000040000fa
:04013000cc020000fd
:020000040000fa
:04013400cc020000f9
:020000040000fa
:04013800cc020000f5
:020000040000fa
:04013c00cc020000f1
:020000040000fa
:04014000cc020000ed
:020000040000fa
:04014400cc020000e9
:020000040000fa
:04014800cc020000e5
:020000040000fa
:04014c00cc020000e1
:020000040000fa
:04015000cc020000dd
:020000040000fa
:04015400cc020000d9
:020000040000fa
:04015800cc020000d5
:020000040000fa
:04015c00cc020000d1
:020000040000fa
:04016000cc020000cd
:020000040000fa
:04016400cc020000c9
:020000040000fa
:04020800cc02000024
:020000040000fa
:04020c00cc02000020
:020000040000fa
:04021000cc0200001c
:020000040000fa
:04021400cc02000018
:020000040000fa
:04021800cc02000014
:020000040000fa
:04021c00cc02000010
:020000040000fa
:04022000cc0200000c
:020000040000fa
:04022400cc02000008
:020000040000fa
:04022800cc02000004
:020000040000fa
:04022c00cc02000000
:020000040000fa
:04023000cc020000fc
:020000040000fa
:04023400cc020000f8
:020000040000fa
:04023800cc020000f4
:020000040000fa
:04023c00cc020000f0
:020000040000fa
:04024000cc020000ec
:020000040000fa
:04024400cc020000e8
:020000040000fa
:04024800cc020000e4
:020000040000fa
:04024c00cc020000e0
:020000040000fa
:04025000cc020000dc
:020000040000fa
:04025400cc020000d8
:020000040000fa
:04025800cc020000d4
:020000040000fa
:04025c00cc020000d0
:020000040000fa
:04026000cc020000cc
:020000040000fa
:04026400cc020000c8
:020000040000fa
:04026800cc020000c4
:020000040000fa
:04026c00cc020000c0
:020000040000fa
:04027000cc020000bc
:020000040000fa
:04027400cc020000b8
:020000040000fa
:04027800cc020000b4
:020000040000fa
:04027c00cc020000b0
:020000040000fa
:04028000cc020000ac
:020000040000fa
:04028400cc020000a8
:020000040000fa
:04028800cc020000a4
:020000040000fa
:04028c00cc020000a0
:020000040000fa
:04029000cc0200009c
:020000040000fa
:04029400cc02000098
:020000040000fa
:04029800cc02000094
:020000040000fa
:04029c00cc02000090
:020000040000fa
:0402a000cc0200008c
:020000040000fa
:0402a400cc02000088
:020000040000fa
:0402a800cc02000084
:020000040000fa
:0402ac00cc02000080
:020000040000fa
:0402b000cc0200007c
:020000040000fa
:0402b400cc02000078
:020000040000fa
:0402b800cc02000074
:020000040000fa
:0402bc00cc02000070
:020000040000fa
:0402c000cc0200006c
:020000040000fa
:0402c400cc02000068
:020000040000fa
:0402c800cc02000064
:020000040000fa
:0402cc00cc02000060
:020000040000fa
:0402d000cc0200005c
:020000040000fa
:0402d400cc02000058
:020000040000fa
:0402d800cc02000054
:020000040000fa
:0402dc00cc02000050
:020000040000fa
:0402e000cc0200004c
:020000040000fa
:0402e400cc02000048
:020000040000fa
:0402e800cc02000044
:020000040000fa
:0402ec00cc02000040
:020000040000fa
:0402f000cc0200003c
:020000040000fa
:0402f400cc02000038
:020000040000fa
:0402f800cc02000034
:020000040000fa
:0402fc00cc02000030
:020000040000fa
:04030000cc0200002b
:020000040000fa
:04030400cc02000027
:020000040000fa
:04030800cc02000023
:020000040000fa
:04030c00cc0200001f
:020000040000fa
:04031000cc0200001b
:020000040000fa
:04031400cc02000017
:020000040000fa
:04031800cc02000013
:020000040000fa
:04031c00cc0200000f
:020000040000fa
:04032000cc0200000b
:020000040000fa
:04032400cc02000007
:020000040000fa
:04032800cc02000003
:020000040000fa
:04032c00cc020000ff
:020000040000fa
:04033000cc020000fb
:020000040000fa
:04033400cc020000f7
:020000040000fa
:04033800cc020000f3
:020000040000fa
:04033c00cc020000ef
:020000040000fa
:04034000cc020000eb
:020000040000fa
:04034400cc020000e7
:020000040000fa
:04034800cc020000e3
:020000040000fa
:04034c00cc020000df
:020000040000fa
:04035000cc020000db
:020000040000fa
:04035400cc020000d7
:020000040000fa
:04035800cc020000d3
:020000040000fa
:04035c00cc020000cf
:020000040000fa
:04036000cc020000cb
:020000040000fa
:04036400cc020000c7
:020000040000fa
:100400004fc520000e7f24000e0188000000000070
:10041000000020000000e000020032000001200087
:1004200020028800140007005d0007000000e000c3
:1004300003003a00206c2100010020000200370078
:100440000000200001002000810f70000100320038
:1004500014000700000020000000e000020032004d
:1004600000000200000000004e1602000000000024
:100470000040da000000fe004440a9008001200096
:100480000000e0000300320000002000a00188000e
:100490004440a800000006008a1f78008b1f7800e7
:1004a0000000060091018800800478000000eb0045
:1004b0001a003700e284440032a0b4009905ba0063
:1004c000e284440032a0b4009906ba00e2844400f9
:1004d00032a0b4000006eb00476fde00fd07b2005b
:1004e000636ce10003003a00ebff07000000eb0043
:1004f0000a003700606ce10004003a00005deb0088
:100500008b05e900fdff3e00040037006168e10053
:10051000010032000086eb000b00070019c7ba008b
:100520001905ba000e04e00003003a000a00e000da
:10053000e0ff3a0000000600fe07b2009e018800be
:100540008a047800f5ff3700395dba008b05e900b1
:100550000c003200295dba008b05e900080032006a
:100560000c00e00003003a00e284440032a0b40032
:10057000f5ff370019ddba008b05e900faff3a00f4
:100580008904e800e184440032a0b40000000600c1
:1005900010030400000000000040da000000fe002c
:1005a00000000500839f68000100e00002003d009c
:1005b00060001000e08018000300e00002003d0031
:1005c00060011100e0811900050007004f00e00004
:1005d00002003b0060001000e080180000000600f0
:1005e0006022b800060220000000d0008180d20006
:1005f0000482d2008582d2000000a00002025200d4
:1006000083825a00030031000202420083824a00c2
:100610000000a1000603e900f3ff3a000000060015
:10062000881f78000204780008017800cc010700d8
:10063000080040004f047800000006000000fa00a7
:10064000881f780000047800ea8157003fb99700be
:100650008800780000312000070007000000e0005b
:10066000020035008040eb00017478004f047800f0
:100670000080fa00000006006200fa00889fbe00b9
:100680008a1f780000057800810478000204780051
:100690008300780080f92f000f004000ae030700b0
:1006a0009a979f00a9979f000000eb00b09f9f00c2
:1006b0001885fb008a04fb000a05ea004f55de009e
:1006c00050022000808f54000d003200e10f5500d1
:1006d0000b003a000a017800880078002f909700fc
:1006e0009f91970003000100a0979f000000e00089
:1006f0008e0032003f9897000000e800b09f9f00f6
:100700000a04440050022000808f5400040032008c
:100710000900e000e6ff3a003f98970084003700a8
:100720000000eb00909f9f00809f9f00f0979f002c
:10073000e0979f00d0979f00c0979f000700370069
:10074000e1c42000010050000000400021c420004e
:1007500061007800df98970001007000d09f9f0033
:100760008804780009047800384578008a00fb0086
:10077000e0c42000810107000000e000f0ff3a0023
:10078000a1c2b300814f55000e003a00cf889700f8
:100790000180e900c08f9f0010007800c09f9f007b
:1007a0000000e00005003d000000ea00c09f9f003f
:1007b0005f9897000020a000d09f9f000904e800e8
:1007c0000f003700c09f9f000000eb0005003700be
:1007d000f2ff2700820f5000020032006a01b900c8
:1007e000028040000904780088047800b900fb000a
:1007f0000103b100e98f5000f5ff3600c09f9f0054
:10080000e0c2b300984f1000020032000080eb00fd
:1008100019003700a0c2b300d84f100007003a00fb
:10082000cf8897000180e900c08f9f0010007800fa
:10083000a09f9f000804e800100037000000eb00b4
:10084000a09f9f008800780005003700f3ff270075
:10085000830f5000020032006a02b9000400410018
:1008600001047800880078003101fb000203b10028
:10087000e90f5100f5ff3600a09f9f0098447800d3
:100880008900fb00a0c320003c0107000000e0003d
:10089000020032000804e800010037008044eb0049
:1008a000c97f9f0080c6b30080cf540004003a0087
:1008b00098cf14000a003a00664050000600370046
:1008c000c0c6b30080cf540005003a0098cf140092
:1008d00003003a0065404000c07f9f000804e80024
:1008e0001801fb00e3fb2f008f81410081f92f00ed
:1008f0008f804000a0f92f000f004000100007007b
:100900000000e00009003a00e1fb2f008f8040006a
:10091000a0f92f000f004000530207000000e00084
:10092000020035000804e80061ff37000080eb009a
:100930004f0578004f04be000080fa00000006005a
:10094000881f7800e4c6b300844f5100b60032001f
:1009500010003c006b425200844f510018003200de
:1009600005003c0054c2b300844f5100ee00320039
:1009700084c5b3000f00370044c6b300844f510054
:100980001400320065424200844f5100e9003a00f1
:100990001000370004c7b300844f5100d500320067
:1009a0005300350065424200844f51005000320030
:1009b00063424200844f5100de003a004c00370091
:1009c0001181e90082087800f0009000124178005f
:1009d000d600370020629000c5c6b300854f520094
:1009e00007003a009102780064825200840878007f
:1009f0001402be004fabde00860378001100370002
:100a000015c7b300854f520003003200a5c6b300de
:100a1000854f520006003a00910278006882520029
:100a2000840878005403be004402be00050037006d
:100a30001182e9008408780014027800cfa2de0059
:100a4000612bb9000498be000690be00a060900023
:100a500088c6b30088cf50000d00320028c6b3000e
:100a600088cf500004003a000402fb00cfa2de0051
:100a7000612bb9000800370048c7b30088cf500089
:100a8000030032006644440088cf500004003a005e
:100a9000cfa2de00612bb9000498be000690be0014
:100aa0003002be002003be00f0009000e00f5200b4
:100ab000e08f5a00e00f5b00e08f5b0002003d001a
:100ac000d4c2b30008003700001290000418a3003d
:100ad00002003200b4c2b300030037000408a300d0
:100ae0004c00320004c2b30084f1780047003700a4
:100af00020629000c5c6b300854f520006003a0040
:100b00009102780064825200840878001402be00ca
:100b10006033b8001100370015c7b300854f52008d
:100b200003003200a5c6b300854f520006003a000c
:100b30009102780068825200840878005403be0055
:100b40004402be00050037001182e90084087800e5
:100b5000140278008002eb006033b8000498be00f5
:100b60000690be00a060900088c6b30088cf5000f9
:100b70000d00320028c6b30088cf500004003a00b0
:100b80000482fb008002eb006033b80008003700ed
:100b900048c7b30088cf50000300320066444400c9
:100ba00088cf500004003a008002eb006033b800a8
:100bb0000498be000690be00801090000138a3008b
:100bc000140032003002be002003be00e00f5200cd
:100bd000e08f5a00e00f5b00e08f5b000d003200f9
:100be00081c7b300814f51000300320081c5b300bb
:100bf000814f510007003a00f000900004c3b30099
:100c000084f178008100e80082f178008100e8003a
:100c100071009800f000900081814100630098000d
:100c2000824078003e003700a0619000c4c6b30047
:100c30001181e90084cf5100220032000a003c00fb
:100c40006442520084cf51002500320004c2e80003
:100c500084cf5100130032006842520084cf51000b
:100c60001e003a000a00370044c7b30084cf510089
:100c70001b0032006642420084cf5100180032004f
:100c80006942520084cf510014003a000500370039
:100c900082087800920078004058900080487800e0
:100ca0002c0037008208780092007800600a9000db
:100cb000cfa2de00612bb9008498be008690be00f2
:100cc00024003700820878009200780060099000c4
:100cd000cf91de008288be001e0037001181e9003e
:100ce0008208780092007800600890008008780000
:100cf000180037001181e90082087800120278009c
:100d0000cfa2de00612bb9000498be000690be00a1
:100d1000f0009000818141006300980081c7b3001a
:100d2000220007000b003700f000900082f17800ed
:100d300006003700f0009000818141000204e000cd
:100d400001003a0052c2b300824978008100e800f5
:100d5000710098000000eb004f04780000000600ce
:100d60008001780002003700b15978000201e900e3
:100d70000200e000fcff3a0000000600020037001d
:100d80000304e00006003200000178000200780051
:100d9000b041780081cf5100f9ff3a0001003700df
:100da0000001eb000200780000000600fc8747000d
:100db000889fbe008a9fbe008c9fbe008e1f780059
:100dc0000006780080c5b30080cf50000a003200d2
:100dd0007740400080cf50000a0032006940400058
:100de00080cf50000b00320090c2200080bf9f00d7
:100df000ae0020000a00370082c1200082bf9f00a1
:100e00000600370093c2200083bf9f008e002000a1
:100e10000300370094c2200084bf9f000e01200011
:100e20003c02be002c03be000605be000404be004a
:100e300040c6b30080cf5000030032006540400040
:100e400080cf50000b003a00e00f5200e08f5a00b4
:100e5000e00f5b00e08f5b0006003d006000b80023
:100e60006011b8000404500085845800060559003c
:100e700087855900e80f5700040032004000200029
:100e8000f00f570038003a00010037003000200012
:100e9000e00f5400e08f5c00e00f5d00e08f5d002c
:100ea00004003a00dc0890008d0120000100e00001
:100eb000060032008e00e900888060008fba97003b
:100ec000e5c07800f1ef9f007d01200080007800f0
:100ed0008100e900050033008b05d1000a85d300ad
:100ee0008984d3000884d300f9ff3700089ebe0030
:100ef0000a96be00120037008d06e9008e00e90058
:100f0000848060000fb99700e2c1780082fd2f0055
:100f10000f01410003f17e00800078008100e900ac
:100f2000050033008783d1000683d3008582d30078
:100f30000482d300f9ff3700049ebe000696be006f
:100f40003c02be002c03be00e00f5200e08f5a00ae
:100f5000e00f5b00e08f5b008b0034000d00e000d1
:100f6000e5ff3c00880037002c60900081c6b3008c
:100f7000814f50000b00320006003c000004e000ee
:100f800008003200e6c05000814f50004e003a0089
:100f900004003700c1c6b300814f50004a003a0038
:100fa000210037000800e00004003a005c089000cf
:100fb0008d0120000000e000060032001100090051
:100fc0000e84d8000fb99700e2c07800f1ef9f00bf
:100fd0007d012000110009000e84d8000a003700ae
:100fe000110009000e04d8008d06e9000e81b90039
:100ff000020454008fb8970061417c0081fd2f00ee
:101000008f80400082f07e00000478000800e0003d
:10101000020032000d00e000f1ff3c00cfc4de0012
:10102000614db90025003700e00f5400e08f5c00ef
:1010300004003a005c0890008d0120000000e000f0
:10104000070032006171b9000800be0044010700ca
:101050008fb99700e3417800f3ef9f007d012000f6
:101060006171b9000800be005dfd07000b0037008c
:101070006171b9000800be004afd07008d06e90055
:1010800000f1b900020454000fba9700e4427c005a
:1010900084fd2f000f02420005f27e000004be0016
:1010a000e00f5000e08f5800020032000d00e00019
:1010b000efff3c004fcdde008a057800089ebe00a1
:1010c0000a96be0030003700e00f5400e08f5c004d
:1010d000e00f5d00e08f5d0004003a005c089000c6
:1010e0008d0120000000e000090032006172b900ab
:1010f000612bb9000800be000a01be00bb01070059
:101100000fba970064427800f4ef9f007d01200041
:101110006172b900612bb9000800be000a01be006f
:10112000ab0107000d0037006172b900612bb900f7
:101130000800be000a01be00b00107008d06e900ec
:1011400000f2b900040454008fba970065427c0095
:1011500085fd2f008f82420084f27e00009ebe003b
:101160000296be003c04be002c05be00e00f5400f9
:10117000e08f5c00e00f5d00e08f5d000200340056
:101180000d00e000e8ff3c00e80f570010003a00b7
:101190000c1090000038a3000d003200f78f5600ad
:1011a00006003e0085fd2f008f824200e5c07e00d4
:1011b00000c3b30080cf5000050032008d06e90067
:1011c00002c3b30081fd2f008f80400082f07e00bb
:1011d00078811600120e98006c00900083fd2f009d
:1011e0008f8141008d804100ddfe07001c089000ca
:1011f000dc089000810f500006003d000080500088
:10120000000e98000c1090000040a10000169800fd
:101210000f0037000100e0000d003d008c10900031
:10122000f4806000f08f500009003a007c099000c3
:10123000fc009000810051000c0990008280500059
:10124000008050004240a90001003400000e9800c8
:101250004f0778004f06be004f05be004f04be008a
:10126000cf01b100000006000400fa00889fbe0014
:101270008a9fbe008c1f7800000478000106780069
:10128000f80d9000780090008085550008089000c7
:10129000808555001808900080855500280890002a
:1012a00080855500380890008085550048089000da
:1012b000808555000002220090bf9f00000323009c
:1012c000a0bf9f00081090000028a30015003a005e
:1012d0000b00e000130034000b0578008a0478004e
:1012e000e20f55000100360029002000c8019000df
:1012f00009017800ee8057005800900003000100bb
:10130000500498000000e0008c0032006808900053
:1013100009004000600c9800090555004240a900f2
:10132000eeff3c00780190000200e0000c00340069
:10133000c80190008c007800580090000300010064
:10134000500498008080eb000000e0007c00320038
:10135000e80890007800900000804000600c980041
:10136000880c90000900e0001100340009057800a5
:10137000e28f5400010036002a002000c8019000ce
:101380000a017800ec80570058009000030001002b
:10139000500498000000e0006800320068089000e7
:1013a0000a004000600c98008a845400edff37006a
:1013b000180990000200e0000c003400c801900001
:1013c000e8009000580090000300010050049800cd
:1013d0008080eb000000e00059003200e808900037
:1013e0001808900000804000600c9800a80c900045
:1013f0000900e0001100340009057800e28f540074
:10140000010036002a002000c80190000a0178007f
:10141000ec80570058009000030001005004980031
:101420000000e00045003200680890000a0040001b
:10143000600c98008a845400edff37003809900052
:101440000200e0000e003400e80090001808900050
:1014500080804000c8019000580090000300010007
:10146000500498008080eb000000e000340032005f
:10147000e80890003808900000804000600c980058
:10148000c80c90000900e000110034000905780044
:10149000e28f5400010036002a002000c8019000ad
:1014a0000a017800ec80570058009000030001000a
:1014b000500498000000e00020003200680890000e
:1014c0000a004000600c98008a845400edff370049
:1014d000081090008000eb000028a30018003200e4
:1014e0000b00e000160034008b047800090578003a
:1014f000e28f5400010036002a002000c80190004d
:101500000a017800ee8057005800900003000100a7
:10151000500498000000e0000800320068089000c5
:101520000a004000600c98008a8454004240a900e0
:10153000eeff3c008000eb00010037008080eb00f4
:10154000010078004f0678004f05be004f04be0032
:101550000080fa0000000600010878000000060084
:101560001ffc07000400be0000000600889fbe00ac
:101570008a9fbe0030044200b0844a0030054b0010
:1015800090854b006000b1000898be000a90be0034
:101590000440e10005c8e10006d0e10007d8e10001
:1015a00002003100680040001008e8004f05be004e
:1015b0004f04be0000000600889fbe008a9fbe0048
:1015c0003004be002005be000418540005985c00dd
:1015d00006185d0007985d00110020000440e1003e
:1015e00005c8e10006d0e10007d8e100010039009c
:1015f0008000eb00108810004f05be004f04be00b5
:10160000000006001200fa00889fbe008a9fbe00fc
:101610008c9fbe00e0b79f00f1b79f0082bf9f0084
:1016200093bf9f000605be000404be000000eb004f
:10163000d0b79f00c0b79f00b0b79f00a0b79f0072
:1016400090b79f000006eb005fb19700cfb0970006
:10165000820141003fb097000200e00004003d001d
:10166000370007007e805700c0ff070003003700e7
:10167000330007007e805700cfff0700dfb69700da
:101680000d00e0000c0035006fb29700ffb297002c
:101690000fbb97009fbb97001000200001002000a7
:1016a0006011b800000272008182720002037300b0
:1016b000838373001b0007000c06e8000104200070
:1016c000810f5600e0ff3a000d00e00004003d00ed
:1016d0000802be000a03be007e805700a3ff070079
:1016e0005fa897000000e00005003a001fb29700d5
:1016f000afb297003fb39700cfb397000900070040
:101700006fb09700ffb097000fb997009fb997008f
:101710004f06be004f05be004f04be000080fa0019
:10172000000006000100070000000600a4b79f00ab
:10173000b5b79f00c6b79f00d7b79f00000006004f
:101740004f09de0082817100b3b79f004f01de00b8
:101750008180400082807000a1b79f008fb0970009
:101760004f09de00000040000200700090b79f00ab
:101770007fa897004f01de008180400082807000ca
:1017800081b79f000d0007004f3ade0000004000c7
:1017900004007000f0af9f00080007000402420040
:1017a00085824a0006034b0087834b00dfff07005a
:1017b0000802be000a03be00000006002fb2970018
:1017c000bfb297004fb39700dfb397000000060049
:1017d000881f780018002000881f780089ff070004
:1017e0008f87e9004f04780000000600801feb009f
:1017f00084ff07008f87e90000000600889fbe0075
:101800008a9fbe00e00f5000e08f5800e00f5900a3
:10181000e08f59000c003d006044b8006055b800ee
:101820000000540081805c0002015d0083815d0046
:10183000180020001500070008003d0018000700f0
:101840000004eb00050037000004eb000f00070068
:1018500002003d001200070018002000dcff070016
:101860000800e000060032006022b8006033b800d3
:101870000000520081805a0002015b0083815b00fe
:101880004f05be004f04be0000000600e00f5200ee
:10189000e08f5a00e00f5b00e08f5b000000060065
:1018a0006044b8006055b8000402540085825c00b2
:1018b00006035d0087835d0000000600889fbe0070
:1018c0008a9fbe008c1f7800e00f5000e08f580008
:1018d000e00f5900e08f59000d003d006044b80052
:1018e0006055b8000000540081805c0002015d007a
:1018f00083815d001c0020000820e10009a8e100b0
:101900000ab0e1000bb8e1000d003d00080037000f
:101910000006eb00e00f5200e08f5a00e00f5b0082
:10192000e08f5b0006003d006044b8006055b800e1
:101930000402540085825c0006035d0087835d001d
:10194000aaff07000c00e000060032006022b80089
:101950006033b8000000520081805a0002015b0031
:1019600083815b004f0678004f05be004f04be0028
:04197000000006006d
:020000040000fa
:10197400415400000000000000410000542b00000e
:101984004241000055440000255800000041000079
:10199400542b0000504900004e2500007500000043
:020000040000fa
:1019a4000400fa00000f780011079800c1a1a900f3
:1019b400010e8000f0f02f0000806000000e88000f
:1019c400010e800030ff2f0000806000000e8800b0
:1019d400010e8000c0ff2f0000806000000e880010
:1019e40000702000400e88001e0078000000e00017
:1019f40001003d00d501a800000024001e00600085
:101a04000000e00001003200d521a80000002200ff
:101a14001e0060000000e00001003200d541a80073
:101a2400000021001e0060000000e0000100320000
:101a3400d561a800008020001e0060000000e000c6
:101a440001003200d581a800004020001e00600083
:101a54000000e00001003200d5a1a8001e009000a3
:101a640009000700d621ef00d821ef00da21ef00aa
:101a7400ca41a900ca21a800ca01a900c1e1a8005d
:101a84000080fa00000006000800fa003007980001
:101a94000040eb00404798003e0090008000eb00bf
:101aa4000001be0060532700c1252000bcfa0700d6
:101ab4000002be004e4090000080fb000000400089
:101ac400110020000008dd00cf80de000001be0010
:101ad4000400be00c1fa07000081eb008081eb0026
:101ae400021f4000039748004e4090000040e80069
:101af40040479800f0ff2700010020001e01be00af
:101b0400800f5100818f5900030036004e40900031
:101b1400e34f5000e0ff3600f0ff270001002000f3
:101b24001e01be00800f5100818f59000300360052
:101b3400f0ff270001002000008fbe004e409000ff
:101b44000040e900634060000080fb006300600027
:101b54004200dd00020e800031ff2f008100610091
:101b640001007000000e88009e007800f0ff27003e
:101b740000806000200e88000080fa00000006004b
:101b84000600fa001007980021079800ae009000a4
:101b940000712200808f5000020036000071220084
:101ba40020079800200e80008000eb000001400018
:101bb400818148002e0090008000eb00009ab9005b
:101bc40004027800028bb900860278000502420004
:101bd4000010b80001024200840078000271220063
:101be400030020006efa0700000f78009e009000aa
:101bf40000002c00008060000000e00002003200c1
:101c04009e007800b10e88009e0090000000230022
:101c1400008060000000e000020032009e007800b6
:101c2400c10e88009e00900000c02000008060006b
:101c34000000e000020032009e007800d10e88000f
:101c44000080fa00000006000400fa001007980063
:101c5400f0002000000f780012003700110020006f
:101c64001e0078000008dd00800078001e0090004f
:101c7400008060000000e00009003200f100200054
:101c84001e8050000080d100110020000008dd00fb
:101c940080007800400e800001007000400e880033
:101ca4001e8fe9001e007800e90f5000ebff3c0096
:101cb400e0002000000f780013003700110020001e
:101cc4001e0078000008dd00800078001e009000ef
:101cd400008060000000e0000a003200e100200003
:101ce4001e8050000080d1006400400011002000dc
:101cf4000008dd0080007800400e800001007000c4
:101d0400400e88001e8fe9001e007800e90f500085
:101d1400eaff3c000080fa00000006000400fa001c
:101d240010079800f0002000000f7800130037001f
:101d3400110020001e0078000008dd0080007800fb
:101d44001e009000008060000000e0000a003200e5
:101d5400f10020001e8050000080d10011002000fe
:101d64000008dd000080ea0080007800400e80005a
:101d740000806000400e88001e8fe9001e0078007d
:101d8400e90f5000eaff3c00e0002000000f78005b
:101d940014003700110020001e0078000008dd0048
:101da400800078001e009000008060000000e000c9
:101db4000b003200e10020001e8050000080d100a2
:101dc40064004000110020000008dd000080ea00eb
:101dd40080007800400e800000806000400e880083
:101de4001e8fe9001e007800e90f5000e9ff3c0057
:101df4000080fa00000006000600fa00a0cb2800cc
:101e040003000900305f78004e00b1004000b100cb
:101e14000040eb00404798000058220001002000d9
:101e2400d90007000e007800330107000080fa0093
:101e3400000006001000fa0060079800710798007f
:101e44006e019000fe019000004b20000100200074
:101e5400800f5100818f590003003e0010002000c4
:101e6400000f7800660037006e019000fe019000bc
:101e74000096200001002000800f5100818f59003e
:101e840003003e0020002000000f78005c003700b3
:101e94006e019000fe019000002c21000100200042
:101ea400800f5100818f590003003e003000200054
:101eb400000f7800520037006e019000fe01900080
:101ec4000058220001002000800f5100818f59002a
:101ed40003003e0040002000000f78004800370057
:101ee4006e019000fe01900000b02400010020006b
:101ef400800f5100818f590003003e0050002000e4
:101f0400000f78003e0037006e019000fe01900043
:101f14000060290001002000800f5100818f5900ca
:101f240003003e0060002000000f780034003700fa
:101f34006e019000fe01900000102e0001002000b0
:101f4400800f5100818f590003003e007000200073
:101f5400000f78002a0037006e019000fe01900007
:101f640000202c0011002000800f5100818f5900a7
:101f740003003e0080002000000f7800200037009e
:101f84006e019000fe019000004028003100200006
:101f9400800f5100818f590003003e009000200003
:101fa400000f7800160037006e019000fe019000cb
:101fb4000080200071002000800f5100818f5900a3
:101fc40003003e00a0002000000f78000c00370042
:101fd4006e019000fe01900000002100e10020004d
:101fe400800f5100818f590003003e00b000200093
:101ff400000f780002003700c0002000000f7800b6
:102004000e80e8009e1f7800f1cb2800811f780025
:1020140089f90700e48757000040eb00204f98003f
:102024000e80e800b400070097e0a90097c0a9005b
:1020340031e2a9003342a9006e019000fe01900034
:1020440060532700c125200064f907004c09dd0016
:102054004400de0000007100c408de0000007800c7
:102064000000e900c011880097e0a90097c0a8000b
:1020740031e2a8003342a8000080fa000000060004
:102084002200fa000017980010442500b1e2240051
:10209400100798002107980010d424005104200050
:1020a4003007980041079800ea0047000a00090039
:1020b4008018eb000000eb00000f78000a003700e6
:1020c4009e007800678040008e1090009140780058
:1020d40000004700214098000e1090000000e80026
:1020e400001798001e0fe8000e10900010407800b2
:1020f4000004e000f2ff3a009e0078006780400090
:10210400000047008040eb00214098000e80e8006a
:10211400790007000080fa00000006000c00fa00b5
:1021240050079800de009000811f780090cc2800b2
:10213400801f78000e0078003ff90700e4875700fd
:102144000e0078006c0007000080fa000000060012
:102154000400fa00100798009e009000010f780018
:102164001e007800640007000080fa0000000600ea
:102174000200fa006e000700004f78001e4078004d
:102184000080fa00000006000400fa00008fbe0080
:102194001e01be0060532700c12520000ff907006f
:1021a4004c09dd004400de0000007100c408de00bc
:1021b400000078000000e900c01188003002a90086
:1021c4008111800090ff2f00008060008011880042
:1021d40030a2a9003062a90081118000f0cf2f0045
:1021e400008060008011880031a2a90033a2a900f8
:1021f40033e2a80091118000f0f32f00008060000a
:102204009011880091058000f0ff28008080600014
:1022140000002500010070009005880091058000f1
:10222400f08f2f00808060000060200001007000ab
:102234009005880087e0a90087c0a90097e0a9005d
:1022440097c0a80031e2a8003342a800113a8000e8
:10225400f00b200000816000600420007105200064
:1022640023742000804978008149780082497800ed
:102274003135800000fe2f00008060006000b30054
:102284003035880031368000f00f2e0080806000e9
:10229400005020000100700030368800103a8000a1
:1022a400000178000260a000600420007105200095
:1022b400237420008049780081497800824978009d
:1022c400401680000060a000401688000080fa00dc
:1022d400000006000000fa000000000071418000c8
:1022e40060418000808f5000fcff3a0084000700aa
:1022f4000080fa00000006000200fa00000f7800d7
:10230400040037001e007800104078005c000700cd
:102314001e0fe8001e007800104078000004e00062
:10232400f8ff3a00760007000080fa00000006007b
:102334000200fa007141800060418000808f5000eb
:102344000d00320070418000e1b12000614078004e
:10235400004f7800704180000000e8007041880060
:1023640071418000a00f2000808f500004003a00cb
:102374002e28ef00020037000040eb00004f7800e9
:102384001e4078000080fa0000000600809fbe0016
:102394000000fa0087e0a90051418000404180001c
:1023a400808f50000d0032005041800041a2200077
:1023b400e14078008180fb00a11188000000e80062
:1023c4005041880051418000a00f2000808f5000b0
:1023d40003003a002a28ef000100370097e0a90023
:1023e4000080fa004f00be0000400600809fbe003f
:1023f400821f78000000fa0087c0a90060418000b5
:102404008000e80070418000808f50000700320097
:1024140061418000900f2000808f500007003a0037
:10242400704180000000e00004003a005016800073
:1024340000d0a100501688000d00370060418000d4
:10244400b111800001417800e1b120008270780070
:10245400604180000000e800604188006141800024
:10246400a00f2000808f500001003a002c28ef00bc
:102474000080fa004f0178004f00be0000400600c3
:102484000200fa00004f7800404180008000e8001c
:1024940050418000808f500007003200414180008d
:1024a400900f2000808f500007003a0050418000b8
:1024b4000000e00004003a005016800000c0a100b3
:1024c400501688000c0037004041800041a22000d3
:1024d4001e41780082707800404180000000e800ce
:1024e4004041880041418000a00f2000808f5000af
:1024f40001003a002828ef000080fa0000000600de
:102504000000fa0097e0a80087e0a8000080fa0025
:10251400000006000400fa00008fbe001e01be0089
:1025240060532700c12520002cf807004c09dd006a
:102534004400de0000007100c408de0000007800e2
:102544000000e900401188002002a9000111800068
:1025540090ff2f00008060000011880020a2a900d5
:102564002062a90001118000f0cf2f0000806000dc
:102574000011880021a2a90023a2a90023e2a80037
:1025840011118000f0f32f0000806000101188000a
:102594005105800080ff2f00008060005000b300d0
:1025a4005005880041058000f0ff2800808060000d
:1025b4000000260001007000400588008580a90005
:1025c4008560a9009580a9009560a80021e2a80073
:1025d4002342a800113a8000f00b20000081600023
:1025e40060042000710520002374200080497800d5
:1025f40081497800824978002135800000fe2f004f
:10260400008060005000b30020358800213680002f
:1026140000fe2f00008060003000b30020368800e8
:10262400103a8000000178000260a00060042000dd
:1026340071052000237420008049780081497800c6
:1026440082497800401680000050a000401688009f
:102654000080fa00000006000000fa0000000000fc
:102664003141800020418000808f5000fcff3a00ff
:10267400840007000080fa00000006000200fa004f
:10268400000f7800040037001e0078001040780026
:102694005c0007001e0fe8001e0078001040780060
:1026a4000004e000f8ff3a00760007000080fa001a
:1026b400000006000200fa00314180002041800041
:1026c400808f50000d00320030418000a192200024
:1026d40061407800004f7800304180000000e8003d
:1026e4003041880031418000a00f2000808f5000cd
:1026f40004003a002628ef00020037000040eb00f7
:10270400004f78001e4078000080fa0000000600a8
:10271400809fbe000000fa008580a900114180005e
:1027240000418000808f50000d0032001041800075
:1027340001832000e14078008180fb0021118800a2
:102744000000e8001041880011418000a00f200023
:10275400808f500003003a002228ef000100370068
:102764009580a9000080fa004f00be0000400600da
:10277400809fbe00821f78000000fa008560a900d7
:10278400204180008000e80030418000808f5000ac
:102794000700320021418000900f2000808f5000fc
:1027a40007003a00304180000000e00004003a00d5
:1027b4005016800000c0a100501688000d0037009c
:1027c400204180003111800001417800a192200055
:1027d40082707800204180000000e80020418800d9
:1027e40021418000a00f2000808f500001003a009a
:1027f4002428ef000080fa004f0178004f00be004b
:10280400004006000200fa00004f780000418000fa
:102814008000e80010418000808f500007003200e3
:1028240001418000900f2000808f500007003a0083
:10283400104180000000e00004003a0050168000bf
:1028440000c0a100501688000c0037000041800031
:10285400018320001e4178008270780000418000ce
:102864000000e8000041880001418000a00f200022
:10287400808f500001003a002028ef000080fa0009
:10288400000006000000fa009580a8008580a800da
:102894000080fa00000006000400fa00008fbe0069
:1028a4001e01be0082408800934088001828ef0073
:1028b4001a28ef000021ef0021088000f0fc2f000f
:1028c400008060000040a0002008880070352100ce
:1028d400100888008460a9009460a80005e1a8009d
:1028e4000080fa00000006000400fa00008fbe0019
:1028f4001e01be00a2408800b34088001c28ef00df
:102904001e28ef000621ef0081088000f0fc2f0054
:10291400008060000040a00080088800703521001d
:102924006008880084e0a90094e0a80011e1a800f0
:102934000080fa00000006000200fa000000eb002c
:10294400000f7800c2408000d340800080408000a7
:1029540091408000800f5100818f590006003a0099
:102964009460a9000421ef001828ef001a28ef0052
:1029740010002000000f78001e0078000080fa008c
:10298400000006000200fa000000eb00000f7800cf
:10299400e2408000f3408000a0408000b14080000d
:1029a400800f5100818f590006003a0094e0a9007d
:1029b4001021ef001c28ef001e28ef00100020005b
:1029c400000f78001e0078000080fa000000060066
:1029d4000800fa0020079800310798006000b8004a
:1029e400008fbe000a21ef0091088000f0fc2f0048
:1029f400008060000040a00090088800703521002d
:102a0400700888008500a9009500a90013e1a800ba
:102a14000b0037000000000021048000001020009b
:102a2400008060000000e000fbff32008500a90088
:102a340012002000030020001e0f41005e97490091
:102a44002e009000be0090001e01be00800f5100b9
:102a5400818f5900efff39009500a90013e1a90007
:102a64000080fa0000000600809fbe000000fa000b
:102a74008460a900c0408000d14080006100400013
:102a8400e0804800c0408800d14088000080fa00ff
:102a94004f00be0000400600809fbe000000fa0008
:102aa40084e0a900e0408000f14080006100400023
:102ab400e0804800e0408800f14088000080fa008f
:102ac4004f00be00004006000400fa001007980002
:102ad4000021ef001e009000ef0f500015003e0093
:102ae4000040eb00004f78001e0090008000eb00d7
:102af400625327000289b90002017800c32520002f
:102b04000382b90084017800030141006353270064
:102b14000300b80001014100820078000271220024
:102b240003002000adf607000000780010088800bc
:102b3400470037009e00900030082000808f50002e
:102b440015003e0010c0b300004f78001e00900036
:102b54008000eb0062ea28000289b90002017800d3
:102b6400b30420000382b90084017800030141000a
:102b740063ea28000300b8000101410082007800e4
:102b8400027122000300200094f607000000780080
:102b9400100888002e0037009e009000104220008c
:102ba400808f500014003e0020c0b300004f780016
:102bb4001e0090008000eb00421d27000289b9002e
:102bc400020178006902b900840178000301410020
:102bd400431d27000300b800010141008200780072
:102be40002712200030020007cf607000000780038
:102bf40010088800160037009e009000a0082100ed
:102c0400808f500012003e0030c0b300004f7800a7
:102c14001e0090008000eb0052c725000289b90015
:102c2400020178008001d0000301410053c7250050
:102c34000300b80001014100820078000271220003
:102c44000300200065f607000000780010088800e3
:102c54008460a9001e80fb004400dd008000780031
:102c64000000280001007000200888000080fa009d
:102c7400000006000000fa000000000020048000ac
:102c8400680060000000e000fcff32008460a900de
:102c94000080fa00000006000600fa000000eb00c5
:102ca400000f780041168000f0ff200000806000d3
:102cb40040168800501680000080eb0050168800f3
:102cc4005d000700005822000100200011fe0700eb
:102cd40049fc0700004b2000010020003cff0700d6
:102ce40000102e000100200052fc0700004b2000c1
:102cf4000100200036ff07000040eb003047980039
:102d04000040eb0050479800200320006eff0700ae
:102d140017fd0700204798002e4090000004e000b3
:102d2400050032000e80e80054fe07001000200069
:102d3400000f7800090037001e007800e10f5000f2
:102d440006003a00a0c0b300204798000e80e800b7
:102d54004afe07000000eb00000f780055fe070054
:102d6400404798004e4090000004e000020032000a
:102d740064004700f6fc0700beff0700e4ff3700cd
:020000040000fa
:102d840030080000f40100000000000020080000ea
:102d94000800000000000000240a0000f401000004
:102da40000000000280800000800000000000000e7
:102db40000080000100000000000000010080000df
:102dc40010000000000000003a0c00001a0000008f
:102dd40002000000686a6c00747a4c000000010074
:102de40000020000040008000010000000002000a1
:102df4002b2d230030000000180c000022000000de
:102e040002000000303132003334350036373800e8
:102e1400394142004344450046003000313233001a
:102e24003435360037383900616263006465660002
:082e3400000000000000000096
:020000040000fa
:102e3c000000fa00213a800000fe2f0000806000a4
:102e4c00203a880090022000303a8800213a800015
:102e5c00f0f32f0000806000203a88001200200060
:102e6c0080072000a10920003374200080497800dd
:102e7c008149780082497800103a8000000178007e
:102e8c000200a000600420007105200023742000c3
:102e9c008049780081497800824978000000000060
:102eac00113a8000000027008080600000002100a3
:102ebc00808f5000faff3a0000000000113a8000a9
:102ecc0000022000008060000000e000fbff3200e8
:102edc000080fa00000006000200fa00000f7800e3
:102eec001e017800e30061000016800001007000f4
:102efc00001688001e0078004200de00ef00600023
:102f0c004016800001007000401688001e80ea0008
:102f1c006019880090102000201988002223ef00ef
:102f2c00000e2800001988000080fa00000006003e
:102f3c000200fa00000f78009e007800411988000a
:102f4c002023a80085a0a900000000002104800017
:102f5c0000002200008060000000e000fbff320057
:0c2f6c00001880000080fa000000060041
:020000040000fa
:0200000401f009
:04000000ffff0000fe
:020000040000fa
:0200000401f009
:04000800ffff0000f6
:020000040000fa
:0200000401f009
:04000c0000000000f0
:020000040000fa
:0200000401f009
:0400100043000000a9
:020000040000fa
:0200000401f009
:040014005f00000089
:020000040000fa
:0200000401f009
:04001800f7000000ed
:020000040000fa
:0200000401f009
:04001c00dfff000002
:00000001FF
